{
  "transactions": [
    {
      "hash": "0xed398b461092e68f94740c8dab860887c613d25029fafba3536e7fc724c67c80",
      "transactionType": "CREATE",
      "contractName": "EPCRouter",
      "contractAddress": "0xf1abd1c450bf1a71419f4ecc941c11a50ab6e489",
      "function": null,
      "arguments": null,
      "transaction": {
        "from": "0x4bcde68a3ecb0db84aade4958abd259c2c5e6d4d",
        "gas": "0x1aa8b0",
        "value": "0x0",
        "input": "0x6080604052348015600e575f80fd5b506832b8319737bbb732b960b91b80544365ffffffffffff16600160a01b026001600160d01b031990911633171790556116e78061004b5f395ff3fe60806040526004361061002c575f3560e01c80631f931c1c146102335780636c5a7d1e146102525761011e565b3661011e576040805160048152602481019091526020810180516001600160e01b031663a3e76c0f60e01b1790525f61006c6100678361101e565b610271565b90506001600160a01b0381161561011c575f80826001600160a01b031634856040516100989190611073565b5f6040518083038185875af1925050503d805f81146100d2576040519150601f19603f3d011682016040523d82523d5f602084013e6100d7565b606091505b509150915081610119577f3729f9cc9585bad8e8e09b954c838f6a57a223b5cdc1e18366da74e774bd47cb8160405161011091906110b3565b60405180910390a15b50505b005b6101266102a1565b6001600160a01b0316336001600160a01b0316146101ab5772195c18cb9c9bdd5d195c8b991a5cd8589b1959606a1b5480156101a95760405162461bcd60e51b815260206004820152601b60248201527f4550432069732064697361626c65642074656d706f726172696c79000000000060448201526064015b60405180910390fd5b505b5f6101c05f356001600160e01b031916610271565b90506001600160a01b038116610215576101df5f3560e01c60046102bb565b6040516020016101ef91906110c5565b60408051601f198184030181529082905262461bcd60e51b82526101a0916004016110b3565b365f80375f80365f845af43d5f803e80801561022f573d5ff35b3d5ffd5b34801561023e575f80fd5b5061011c61024d36600461114b565b6102e1565b34801561025d575f80fd5b5061011c61026c3660046111fb565b610388565b6001600160e01b0319165f9081525f8051602061164683398151915260205260409020546001600160a01b031690565b6832b8319737bbb732b960b91b546001600160a01b031690565b60606102c783836103fb565b805161307882526002016001199091019081529392505050565b6102e96102a1565b6001600160a01b0316336001600160a01b0316146103385760405162461bcd60e51b815260206004820152600c60248201526b1d5b985d5d1a1bdc9a5e995960a21b60448201526064016101a0565b61038161034585876112ab565b8484848080601f0160208091040260200160405190810160405280939291908181526020018383808284375f9201919091525061048192505050565b5050505050565b6103906102a1565b6001600160a01b0316336001600160a01b0316146103df5760405162461bcd60e51b815260206004820152600c60248201526b1d5b985d5d1a1bdc9a5e995960a21b60448201526064016101a0565b151572195c18cb9c9bdd5d195c8b991a5cd8589b1959606a1b55565b6060601f1960428360011b0116604051019050602081016040525f8152806f30313233343536373839616263646566600f528283018203600119855b600f811651948201946001860153600f8160041c1651855360081c84830361043757801561046c57632194895a5f526004601cfd5b505050819003601f1990910190815292915050565b5f5b8351811015610637575f84828151811061049f5761049f6113e6565b60200260200101516020015190505f60028111156104bf576104bf6113fa565b8160028111156104d1576104d16113fa565b0361051e576105198583815181106104eb576104eb6113e6565b60200260200101515f0151868481518110610508576105086113e6565b602002602001015160400151610682565b61062e565b6001816002811115610532576105326113fa565b0361057a5761051985838151811061054c5761054c6113e6565b60200260200101515f0151868481518110610569576105696113e6565b6020026020010151604001516107ed565b600281600281111561058e5761058e6113fa565b036105d6576105198583815181106105a8576105a86113e6565b60200260200101515f01518684815181106105c5576105c56113e6565b602002602001015160400151610970565b60405162461bcd60e51b815260206004820152602760248201527f4c69624469616d6f6e644375743a20496e636f727265637420466163657443756044820152663a20b1ba34b7b760c91b60648201526084016101a0565b50600101610483565b507f8faa70878671ccd212d20771b795c50af8fd3ff6cf27f4bde57e5d4de0aeb67383838360405161066b9392919061140e565b60405180910390a161067d8282610a7e565b505050565b5f8151116106a25760405162461bcd60e51b81526004016101a090611518565b5f805160206116468339815191526001600160a01b0383166106d65760405162461bcd60e51b81526004016101a090611563565b6001600160a01b0383165f908152600182016020526040812054906001600160601b038216900361070b5761070b8285610b40565b5f5b8351811015610381575f848281518110610729576107296113e6565b6020908102919091018101516001600160e01b031981165f908152918690526040909120549091506001600160a01b031680156107c65760405162461bcd60e51b815260206004820152603560248201527f4c69624469616d6f6e644375743a2043616e2774206164642066756e6374696f6044820152746e207468617420616c72656164792065786973747360581b60648201526084016101a0565b6107d28583868a610ba9565b836107dc816115c3565b9450506001909201915061070d9050565b5f81511161080d5760405162461bcd60e51b81526004016101a090611518565b5f805160206116468339815191526001600160a01b0383166108415760405162461bcd60e51b81526004016101a090611563565b6001600160a01b0383165f908152600182016020526040812054906001600160601b0382169003610876576108768285610b40565b5f5b8351811015610381575f848281518110610894576108946113e6565b6020908102919091018101516001600160e01b031981165f908152918690526040909120549091506001600160a01b03908116908716810361093e5760405162461bcd60e51b815260206004820152603860248201527f4c69624469616d6f6e644375743a2043616e2774207265706c6163652066756e60448201527f6374696f6e20776974682073616d652066756e6374696f6e000000000000000060648201526084016101a0565b610949858284610c48565b6109558583868a610ba9565b8361095f816115c3565b945050600190920191506108789050565b5f8151116109905760405162461bcd60e51b81526004016101a090611518565b5f805160206116468339815191526001600160a01b03831615610a145760405162461bcd60e51b815260206004820152603660248201527f4c69624469616d6f6e644375743a2052656d6f76652066616365742061646472604482015275657373206d757374206265206164647265737328302960501b60648201526084016101a0565b5f5b8251811015610a78575f838281518110610a3257610a326113e6565b6020908102919091018101516001600160e01b031981165f908152918590526040909120549091506001600160a01b0316610a6e848284610c48565b5050600101610a16565b50505050565b6001600160a01b038216610a90575050565b610ab28260405180606001604052806028815260200161166660289139610ffd565b5f80836001600160a01b031683604051610acc9190611073565b5f60405180830381855af49150503d805f8114610b04576040519150601f19603f3d011682016040523d82523d5f602084013e610b09565b606091505b509150915081610a7857805115610b235780518082602001fd5b838360405163192105d760e01b81526004016101a09291906115ed565b610b628160405180606001604052806024815260200161168e60249139610ffd565b6002820180546001600160a01b039092165f8181526001948501602090815260408220860185905594840183559182529290200180546001600160a01b0319169091179055565b6001600160e01b031983165f8181526020868152604080832080546001600160601b03909716600160a01b026001600160a01b0397881617815594909516808352600180890183529583208054968701815583528183206008870401805460e09890981c60046007909816979097026101000a96870263ffffffff9097021990971695909517909555529290915281546001600160a01b031916179055565b6001600160a01b038216610cc45760405162461bcd60e51b815260206004820152603760248201527f4c69624469616d6f6e644375743a2043616e27742072656d6f76652066756e6360448201527f74696f6e207468617420646f65736e277420657869737400000000000000000060648201526084016101a0565b306001600160a01b03831603610d335760405162461bcd60e51b815260206004820152602e60248201527f4c69624469616d6f6e644375743a2043616e27742072656d6f766520696d6d7560448201526d3a30b1363290333ab731ba34b7b760911b60648201526084016101a0565b6001600160e01b031981165f90815260208481526040808320546001600160a01b0386168452600180880190935290832054600160a01b9091046001600160601b03169291610d8191611618565b9050808214610e70576001600160a01b0384165f9081526001860160205260408120805483908110610db557610db56113e6565b5f91825260208083206008830401546001600160a01b038916845260018a019091526040909220805460079092166004026101000a90920460e01b925082919085908110610e0557610e056113e6565b5f91825260208083206008830401805463ffffffff60079094166004026101000a938402191660e09590951c929092029390931790556001600160e01b03199290921682528690526040902080546001600160a01b0316600160a01b6001600160601b038516021790555b6001600160a01b0384165f9081526001860160205260409020805480610e9857610e98611631565b5f828152602080822060085f1990940193840401805463ffffffff600460078716026101000a0219169055919092556001600160e01b031985168252869052604081208190558190036103815760028501545f90610ef890600190611618565b6001600160a01b0386165f908152600180890160205260409091200154909150808214610fa3575f876002018381548110610f3557610f356113e6565b5f918252602090912001546002890180546001600160a01b039092169250829184908110610f6557610f656113e6565b5f91825260208083209190910180546001600160a01b0319166001600160a01b03948516179055929091168152600189810190925260409020018190555b86600201805480610fb657610fb6611631565b5f828152602080822083015f1990810180546001600160a01b03191690559092019092556001600160a01b0388168252600189810190915260408220015550505050505050565b813b8181610a785760405162461bcd60e51b81526004016101a091906110b3565b805160208201516001600160e01b0319811691906004821015611055576001600160e01b0319600483900360031b81901b82161692505b5050919050565b5f81518060208401855e5f93019283525090919050565b5f61107e828461105c565b9392505050565b5f81518084528060208401602086015e5f602082860101526020601f19601f83011685010191505092915050565b602081525f61107e6020830184611085565b71036b2ba3437b2103737ba103337bab7321d160751b81525f61107e601283018461105c565b80356001600160a01b0381168114611101575f80fd5b919050565b5f8083601f840112611116575f80fd5b50813567ffffffffffffffff81111561112d575f80fd5b602083019150836020828501011115611144575f80fd5b9250929050565b5f805f805f6060868803121561115f575f80fd5b853567ffffffffffffffff811115611175575f80fd5b8601601f81018813611185575f80fd5b803567ffffffffffffffff81111561119b575f80fd5b8860208260051b84010111156111af575f80fd5b6020918201965094506111c39087016110eb565b9250604086013567ffffffffffffffff8111156111de575f80fd5b6111ea88828901611106565b969995985093965092949392505050565b5f6020828403121561120b575f80fd5b8135801515811461107e575f80fd5b634e487b7160e01b5f52604160045260245ffd5b6040516060810167ffffffffffffffff811182821017156112515761125161121a565b60405290565b604051601f8201601f1916810167ffffffffffffffff811182821017156112805761128061121a565b604052919050565b5f67ffffffffffffffff8211156112a1576112a161121a565b5060051b60200190565b5f6112bd6112b884611288565b611257565b8381526020810190600585901b8401368111156112d8575f80fd5b845b818110156113db57803567ffffffffffffffff8111156112f8575f80fd5b8601606036829003121561130a575f80fd5b61131261122e565b61131b826110eb565b815260208201356003811061132e575f80fd5b6020820152604082013567ffffffffffffffff81111561134c575f80fd5b919091019036601f83011261135f575f80fd5b813561136d6112b882611288565b8082825260208201915060208360051b86010192503683111561138e575f80fd5b6020850194505b828510156113c55784356001600160e01b0319811681146113b4575f80fd5b825260209485019490910190611395565b60408401525050855250602093840193016112da565b509095945050505050565b634e487b7160e01b5f52603260045260245ffd5b634e487b7160e01b5f52602160045260245ffd5b5f606082016060835280865180835260808501915060808160051b8601019250602088015f5b828110156114e957868503607f19018452815180516001600160a01b03168652602081015160608701906003811061147a57634e487b7160e01b5f52602160045260245ffd5b8060208901525060408201519150606060408801528082518083526080890191506020840193505f92505b808310156114d15783516001600160e01b031916825260209384019360019390930192909101906114a5565b50965050506020938401939190910190600101611434565b5050506001600160a01b038616602085015250828103604084015261150e8185611085565b9695505050505050565b6020808252602b908201527f4c69624469616d6f6e644375743a204e6f2073656c6563746f727320696e206660408201526a1858d95d081d1bc818dd5d60aa1b606082015260800190565b6020808252602c908201527f4c69624469616d6f6e644375743a204164642066616365742063616e2774206260408201526b65206164647265737328302960a01b606082015260800190565b634e487b7160e01b5f52601160045260245ffd5b5f6001600160601b0382166001600160601b0381036115e4576115e46115af565b60010192915050565b6001600160a01b03831681526040602082018190525f9061161090830184611085565b949350505050565b8181038181111561162b5761162b6115af565b92915050565b634e487b7160e01b5f52603160045260245ffdfec8fcad8db84d3cc18b4c41d551ea0ee66dd599cde068d998e57d5e09332c131c4c69624469616d6f6e644375743a205f696e6974206164647265737320686173206e6f20636f64654c69624469616d6f6e644375743a204e657720666163657420686173206e6f20636f6465a2646970667358221220862641f0570c4a7ac05fa2855b82847bcdab159f06e6727553014e9eaa76763a64736f6c634300081a0033",
        "nonce": "0x0",
        "chainId": "0x2105"
      },
      "additionalContracts": [],
      "isFixedGasLimit": false
    },
    {
      "hash": "0x6e883d096d4934fc4939d9ec226ff92d92c1ccb2d41c3d362799305231b165fc",
      "transactionType": "CREATE",
      "contractName": "EPCAdmin",
      "contractAddress": "0xb663883fc654e5c85b383fd018e71e13e1ee3ef0",
      "function": null,
      "arguments": null,
      "transaction": {
        "from": "0x4bcde68a3ecb0db84aade4958abd259c2c5e6d4d",
        "gas": "0x4254a",
        "value": "0x0",
        "input": "0x6080604052348015600e575f80fd5b506832b8319737bbb732b960b91b80544365ffffffffffff16600160a01b026001600160d01b031990911633171790556102668061004b5f395ff3fe608060405234801561000f575f80fd5b5060043610610034575f3560e01c80638da5cb5b14610038578063f2fde38b1461005c575b5f80fd5b610040610071565b6040516001600160a01b03909116815260200160405180910390f35b61006f61006a366004610203565b610094565b005b5f61008f6832b8319737bbb732b960b91b546001600160a01b031690565b905090565b6832b8319737bbb732b960b91b546001600160a01b031633146100ed5760405162461bcd60e51b815260206004820152600c60248201526b1d5b985d5d1a1bdc9a5e995960a21b60448201526064015b60405180910390fd5b6100f6816100f9565b50565b6832b8319737bbb732b960b91b6001600160a01b0382166101505760405162461bcd60e51b815260206004820152601160248201527034b73b30b634b2103732bb9037bbb732b960791b60448201526064016100e4565b606d196001600160a01b03831601610166575f91505b805461017b906001600160a01b0316836101bf565b6101bb826832b8319737bbb732b960b91b80546001600160d01b0319166001600160a01b0390921691909117600160a01b65ffffffffffff431602179055565b5050565b806001600160a01b0316826001600160a01b03167f8be0079c531659141344cd1fd0a4f28419497f9722a3daafe3b4186f6b6457e060405160405180910390a35050565b5f60208284031215610213575f80fd5b81356001600160a01b0381168114610229575f80fd5b939250505056fea2646970667358221220b412dfcc8e5796f24f8168e9137ed499a0a6efeec9970ec7949b15100604b9e564736f6c634300081a0033",
        "nonce": "0x1",
        "chainId": "0x2105"
      },
      "additionalContracts": [],
      "isFixedGasLimit": false
    },
    {
      "hash": "0x66b81b66378eee773771170f468a2246e004da2dba92d4de8de107449d9ecd4b",
      "transactionType": "CALL",
      "contractName": "EPCRouter",
      "contractAddress": "0xf1abd1c450bf1a71419f4ecc941c11a50ab6e489",
      "function": "diamondCut((address,uint8,bytes4[])[],address,bytes)",
      "arguments": [
        "[(0xb663883fC654e5C85B383Fd018e71e13e1ee3ef0, 0, [0x8da5cb5b, 0xf2fde38b])]",
        "0x0000000000000000000000000000000000000000",
        "0x"
      ],
      "transaction": {
        "from": "0x4bcde68a3ecb0db84aade4958abd259c2c5e6d4d",
        "to": "0xf1abd1c450bf1a71419f4ecc941c11a50ab6e489",
        "gas": "0x3a995",
        "value": "0x0",
        "input": "0x1f931c1c00000000000000000000000000000000000000000000000000000000000000600000000000000000000000000000000000000000000000000000000000000000000000000000000000000000000000000000000000000000000000000000016000000000000000000000000000000000000000000000000000000000000000010000000000000000000000000000000000000000000000000000000000000020000000000000000000000000b663883fc654e5c85b383fd018e71e13e1ee3ef00000000000000000000000000000000000000000000000000000000000000000000000000000000000000000000000000000000000000000000000000000006000000000000000000000000000000000000000000000000000000000000000028da5cb5b00000000000000000000000000000000000000000000000000000000f2fde38b000000000000000000000000000000000000000000000000000000000000000000000000000000000000000000000000000000000000000000000000",
        "nonce": "0x2",
        "chainId": "0x2105"
      },
      "additionalContracts": [],
      "isFixedGasLimit": false
    },
    {
      "hash": "0x2a45b61a5643b7208a19adb6beec3bf4e4cf7c6eeb70fb3c9a066c024c75e188",
      "transactionType": "CREATE",
      "contractName": "EPCMint",
      "contractAddress": "0x10206868fefd4b28d37dddfddf0dfb59219ac4f8",
      "function": null,
      "arguments": [
        "0x801fF9aB1e42da300cc1bfE03a66Ec5520781f53"
      ],
      "transaction": {
        "from": "0x4bcde68a3ecb0db84aade4958abd259c2c5e6d4d",
        "gas": "0x76203",
        "value": "0x0",
        "input": "0x60a0604052348015600e575f80fd5b506040516105f93803806105f9833981016040819052602b91606a565b6001600160a01b03166080526832b8319737bbb732b960b91b8054336001600160d01b031990911617600160a01b65ffffffffffff4316021790556095565b5f602082840312156079575f80fd5b81516001600160a01b0381168114608e575f80fd5b9392505050565b60805161054f6100aa5f395f505061054f5ff3fe608060405234801561000f575f80fd5b5060043610610034575f3560e01c80636c6458e314610038578063bd44b0761461005c575b5f80fd5b61004061006f565b6040516001600160a01b03909116815260200160405180910390f35b61004061006a3660046103c1565b61027d565b5f61008d6832b8319737bbb732b960b91b546001600160a01b031690565b6001600160a01b0316336001600160a01b0316146100e15760405162461bcd60e51b815260206004820152600c60248201526b1d5b985d5d1a1bdc9a5e995960a21b60448201526064015b60405180910390fd5b5f6040518060400160405280600d81526020016c115410d7d352539517d51154d5609a1b815250905061015f6040518060200161011d906103a1565b601f1982820381018352601f9091011660405261015a83805172455448455245554d20504c41434520434f444560681b8252602081018220915290565b61028e565b915061016a8161027d565b6001600160a01b0316826001600160a01b0316146101ca5760405162461bcd60e51b815260206004820152601d60248201527f455043206d696e742074657374206661696c65643a206164647265737300000060448201526064016100d8565b816001600160a01b031663922779336040518163ffffffff1660e01b8152600401602060405180830381865afa158015610206573d5f803e3d5ffd5b505050506040513d601f19601f8201168201806040525081019061022a9190610474565b606f146102795760405162461bcd60e51b815260206004820181905260248201527f455043206d696e742074657374206661696c65643a20756e63616c6c61626c6560448201526064016100d8565b5090565b5f61028830836102a1565b92915050565b5f61029a5f84846102e1565b9392505050565b5f806102cd83805172455448455245554d20504c41434520434f444560681b8252602081018220915290565b90506102d9818561034a565b949350505050565b5f6f67363d3d37363d34f03d5260086018f35f52816010805ff58061030d5763301164255f526004601cfd5b8060145261d6945f5260016034536017601e2091505f8085516020870188855af1823b026103425763301164255f526004601cfd5b509392505050565b5f604051825f5260ff600b53836020527f21c35dbe1b344a2488cf3321d6ce542f8e9f305544ff09e4993a62319a497c1f6040526055600b20601452806040525061d6945f52600160345350506017601e20919050565b608e8061048c83390190565b634e487b7160e01b5f52604160045260245ffd5b5f602082840312156103d1575f80fd5b813567ffffffffffffffff8111156103e7575f80fd5b8201601f810184136103f7575f80fd5b803567ffffffffffffffff811115610411576104116103ad565b604051601f8201601f19908116603f0116810167ffffffffffffffff81118282101715610440576104406103ad565b604052818152828201602001861015610457575f80fd5b816020840160208301375f91810160200191909152949350505050565b5f60208284031215610484575f80fd5b505191905056fe6080604052348015600e575f80fd5b50607480601a5f395ff3fe6080604052348015600e575f80fd5b50600436106026575f3560e01c80639227793314602a575b5f80fd5b606f60405190815260200160405180910390f3fea2646970667358221220cf7fe2b7819bf340528b4bafd89bd25f317105302b526a90ce6c6e36abbcac1364736f6c634300081a0033a264697066735822122059af069720aafe2827cbda471d5bc7ab62c1f0101650e428def32adea13672e564736f6c634300081a0033000000000000000000000000801ff9ab1e42da300cc1bfe03a66ec5520781f53",
        "nonce": "0x3",
        "chainId": "0x2105"
      },
      "additionalContracts": [],
      "isFixedGasLimit": false
    },
    {
      "hash": "0xd4edd5aaebd211b9ec5bf9caee33b20567202a9a5bde03429a67f2fd1afdaa42",
      "transactionType": "CALL",
      "contractName": "EPCRouter",
      "contractAddress": "0xf1abd1c450bf1a71419f4ecc941c11a50ab6e489",
      "function": "diamondCut((address,uint8,bytes4[])[],address,bytes)",
      "arguments": [
        "[(0x10206868FEFd4b28d37DddFddf0dfB59219AC4f8, 0, [0xbd44b076, 0x6c6458e3])]",
        "0x0000000000000000000000000000000000000000",
        "0x"
      ],
      "transaction": {
        "from": "0x4bcde68a3ecb0db84aade4958abd259c2c5e6d4d",
        "to": "0xf1abd1c450bf1a71419f4ecc941c11a50ab6e489",
        "gas": "0x3b8b1",
        "value": "0x0",
        "input": "0x1f931c1c0000000000000000000000000000000000000000000000000000000000000060000000000000000000000000000000000000000000000000000000000000000000000000000000000000000000000000000000000000000000000000000001600000000000000000000000000000000000000000000000000000000000000001000000000000000000000000000000000000000000000000000000000000002000000000000000000000000010206868fefd4b28d37dddfddf0dfb59219ac4f8000000000000000000000000000000000000000000000000000000000000000000000000000000000000000000000000000000000000000000000000000000600000000000000000000000000000000000000000000000000000000000000002bd44b076000000000000000000000000000000000000000000000000000000006c6458e3000000000000000000000000000000000000000000000000000000000000000000000000000000000000000000000000000000000000000000000000",
        "nonce": "0x4",
        "chainId": "0x2105"
      },
      "additionalContracts": [],
      "isFixedGasLimit": false
    },
    {
      "hash": "0xab164b2881b5c9d25db9228363980cca0a36b10694769d5bfdf2cda1e56839c3",
      "transactionType": "CALL",
      "contractName": "EPCRouter",
      "contractAddress": "0xf1abd1c450bf1a71419f4ecc941c11a50ab6e489",
      "function": null,
      "arguments": null,
      "transaction": {
        "from": "0x4bcde68a3ecb0db84aade4958abd259c2c5e6d4d",
        "to": "0xf1abd1c450bf1a71419f4ecc941c11a50ab6e489",
        "gas": "0x2aa73",
        "value": "0x0",
        "input": "0x6c6458e3",
        "nonce": "0x5",
        "chainId": "0x2105"
      },
      "additionalContracts": [
        {
          "transactionType": "CREATE2",
          "contractName": null,
          "address": "0xcddc8a16bb6b04486b6c4d9519a29b7abd783b2e",
          "initCode": "0x67363d3d37363d34f03d5260086018f3"
        },
        {
          "transactionType": "CREATE",
          "contractName": "EpcMintTest",
          "address": "0x327f5b78d2cb1100fbb03f273e7738d91a2b896f",
          "initCode": "0x6080604052348015600e575f80fd5b50607480601a5f395ff3fe6080604052348015600e575f80fd5b50600436106026575f3560e01c80639227793314602a575b5f80fd5b606f60405190815260200160405180910390f3fea2646970667358221220cf7fe2b7819bf340528b4bafd89bd25f317105302b526a90ce6c6e36abbcac1364736f6c634300081a0033"
        }
      ],
      "isFixedGasLimit": false
    }
  ],
  "receipts": [
    {
      "status": "0x1",
      "cumulativeGasUsed": "0x14ebd9a",
      "logs": [],
      "logsBloom": "0x00000000000000000000000000000000000000000000000000000000000000000000000000000000000000000000000000000000000000000000000000000000000000000000000000000000000000000000000000000000000000000000000000000000000000000000000000000000000000000000000000000000000000000000000000000000000000000000000000000000000000000000000000000000000000000000000000000000000000000000000000000000000000000000000000000000000000000000000000000000000000000000000000000000000000000000000000000000000000000000000000000000000000000000000000000000",
      "type": "0x2",
      "transactionHash": "0xed398b461092e68f94740c8dab860887c613d25029fafba3536e7fc724c67c80",
      "transactionIndex": "0x5f",
      "blockHash": "0x8144d37d451a90cf111432b656c5f0aee9279dd0f88fdcf41fc76431a84ef405",
      "blockNumber": "0x22ab41d",
      "gasUsed": "0x1481c3",
      "effectiveGasPrice": "0x3a3d89",
      "from": "0x4bcde68a3ecb0db84aade4958abd259c2c5e6d4d",
      "to": null,
      "contractAddress": "0xf1abd1c450bf1a71419f4ecc941c11a50ab6e489",
      "l1BaseFeeScalar": "0x8dd",
      "l1BlobBaseFee": "0x1",
      "l1BlobBaseFeeScalar": "0x101c12",
      "l1Fee": "0x8d1c61063",
      "l1GasPrice": "0x128b615b",
      "l1GasUsed": "0xd199"
    },
    {
      "status": "0x1",
      "cumulativeGasUsed": "0x1c59fe3",
      "logs": [],
      "logsBloom": "0x00000000000000000000000000000000000000000000000000000000000000000000000000000000000000000000000000000000000000000000000000000000000000000000000000000000000000000000000000000000000000000000000000000000000000000000000000000000000000000000000000000000000000000000000000000000000000000000000000000000000000000000000000000000000000000000000000000000000000000000000000000000000000000000000000000000000000000000000000000000000000000000000000000000000000000000000000000000000000000000000000000000000000000000000000000000",
      "type": "0x2",
      "transactionHash": "0x6e883d096d4934fc4939d9ec226ff92d92c1ccb2d41c3d362799305231b165fc",
      "transactionIndex": "0xbb",
      "blockHash": "0x9d11a0908ca8b53565b20aba2dec28bfc5dac148e108c580bb8734e898917b64",
      "blockNumber": "0x22ab421",
      "gasUsed": "0x33061",
      "effectiveGasPrice": "0x397231",
      "from": "0x4bcde68a3ecb0db84aade4958abd259c2c5e6d4d",
      "to": null,
      "contractAddress": "0xb663883fc654e5c85b383fd018e71e13e1ee3ef0",
      "l1BaseFeeScalar": "0x8dd",
      "l1BlobBaseFee": "0x1",
      "l1BlobBaseFeeScalar": "0x101c12",
      "l1Fee": "0x14e45f1a0",
      "l1GasPrice": "0x12973002",
      "l1GasUsed": "0x1ef4"
    },
    {
      "status": "0x1",
      "cumulativeGasUsed": "0xcac790",
      "logs": [
        {
          "address": "0xf1abd1c450bf1a71419f4ecc941c11a50ab6e489",
          "topics": [
            "0x8faa70878671ccd212d20771b795c50af8fd3ff6cf27f4bde57e5d4de0aeb673"
          ],
          "data": "0x00000000000000000000000000000000000000000000000000000000000000600000000000000000000000000000000000000000000000000000000000000000000000000000000000000000000000000000000000000000000000000000016000000000000000000000000000000000000000000000000000000000000000010000000000000000000000000000000000000000000000000000000000000020000000000000000000000000b663883fc654e5c85b383fd018e71e13e1ee3ef00000000000000000000000000000000000000000000000000000000000000000000000000000000000000000000000000000000000000000000000000000006000000000000000000000000000000000000000000000000000000000000000028da5cb5b00000000000000000000000000000000000000000000000000000000f2fde38b000000000000000000000000000000000000000000000000000000000000000000000000000000000000000000000000000000000000000000000000",
          "blockHash": "0xa246d4d46b41704b78a1064bcc5d802409a401e16457e1437630ac8df907c2f6",
          "blockNumber": "0x22ab424",
          "blockTimestamp": "0x68dfc52b",
          "transactionHash": "0x66b81b66378eee773771170f468a2246e004da2dba92d4de8de107449d9ecd4b",
          "transactionIndex": "0x2a",
          "logIndex": "0x126",
          "removed": false
        }
      ],
      "logsBloom": "0x00000000000000000000000000000000000000000000000000000000000000000000000000000000000000000000000000000000000000000000000000000000000000000000000000000000000000000000000001000000000800000000000000000000000000000000000000000000000200000000000000000000000000000020000000000000000000000000000000000000000000000000008000000000000000000000000000000000000000000000000000000000000000000000000020000000000000000000000000000000000000000000000000000000000000000000000000000000000000000000000000000000000000000000000000000000",
      "type": "0x2",
      "transactionHash": "0x66b81b66378eee773771170f468a2246e004da2dba92d4de8de107449d9ecd4b",
      "transactionIndex": "0x2a",
      "blockHash": "0xa246d4d46b41704b78a1064bcc5d802409a401e16457e1437630ac8df907c2f6",
      "blockNumber": "0x22ab424",
      "gasUsed": "0x2a6cc",
      "effectiveGasPrice": "0x39552d",
      "from": "0x4bcde68a3ecb0db84aade4958abd259c2c5e6d4d",
      "to": "0xf1abd1c450bf1a71419f4ecc941c11a50ab6e489",
      "contractAddress": null,
      "l1BaseFeeScalar": "0x8dd",
      "l1BlobBaseFee": "0x1",
      "l1BlobBaseFeeScalar": "0x101c12",
      "l1Fee": "0x539b5242",
      "l1GasPrice": "0x12973002",
      "l1GasUsed": "0x7be"
    },
    {
      "status": "0x1",
      "cumulativeGasUsed": "0x21e43e1",
      "logs": [],
      "logsBloom": "0x00000000000000000000000000000000000000000000000000000000000000000000000000000000000000000000000000000000000000000000000000000000000000000000000000000000000000000000000000000000000000000000000000000000000000000000000000000000000000000000000000000000000000000000000000000000000000000000000000000000000000000000000000000000000000000000000000000000000000000000000000000000000000000000000000000000000000000000000000000000000000000000000000000000000000000000000000000000000000000000000000000000000000000000000000000000",
      "type": "0x2",
      "transactionHash": "0x2a45b61a5643b7208a19adb6beec3bf4e4cf7c6eeb70fb3c9a066c024c75e188",
      "transactionIndex": "0x54",
      "blockHash": "0xf7f73fa6a121d00a978f090d3bf356609eedb66d850dd71d42de739c2aafb69f",
      "blockNumber": "0x22ab426",
      "gasUsed": "0x5addb",
      "effectiveGasPrice": "0x38e3b2",
      "from": "0x4bcde68a3ecb0db84aade4958abd259c2c5e6d4d",
      "to": null,
      "contractAddress": "0x10206868fefd4b28d37dddfddf0dfb59219ac4f8",
      "l1BaseFeeScalar": "0x8dd",
      "l1BlobBaseFee": "0x1",
      "l1BlobBaseFeeScalar": "0x101c12",
      "l1Fee": "0x2c65c9b14",
      "l1GasPrice": "0x12671a1f",
      "l1GasUsed": "0x4274"
    },
    {
      "status": "0x1",
      "cumulativeGasUsed": "0x18feffe",
      "logs": [
        {
          "address": "0xf1abd1c450bf1a71419f4ecc941c11a50ab6e489",
          "topics": [
            "0x8faa70878671ccd212d20771b795c50af8fd3ff6cf27f4bde57e5d4de0aeb673"
          ],
          "data": "0x0000000000000000000000000000000000000000000000000000000000000060000000000000000000000000000000000000000000000000000000000000000000000000000000000000000000000000000000000000000000000000000001600000000000000000000000000000000000000000000000000000000000000001000000000000000000000000000000000000000000000000000000000000002000000000000000000000000010206868fefd4b28d37dddfddf0dfb59219ac4f8000000000000000000000000000000000000000000000000000000000000000000000000000000000000000000000000000000000000000000000000000000600000000000000000000000000000000000000000000000000000000000000002bd44b076000000000000000000000000000000000000000000000000000000006c6458e3000000000000000000000000000000000000000000000000000000000000000000000000000000000000000000000000000000000000000000000000",
          "blockHash": "0x853f9f96d720ceea7b84dfee65fe38e04f09e1bbc65c13c457600e1f025587dc",
          "blockNumber": "0x22ab428",
          "blockTimestamp": "0x68dfc533",
          "transactionHash": "0xd4edd5aaebd211b9ec5bf9caee33b20567202a9a5bde03429a67f2fd1afdaa42",
          "transactionIndex": "0x77",
          "logIndex": "0x316",
          "removed": false
        }
      ],
      "logsBloom": "0x00000000000000000000000000000000000000000000000000000000000000000000000000000000000000000000000000000000000000000000000000000000000000000000000000000000000000000000000001000000000800000000000000000000000000000000000000000000000200000000000000000000000000000020000000000000000000000000000000000000000000000000008000000000000000000000000000000000000000000000000000000000000000000000000020000000000000000000000000000000000000000000000000000000000000000000000000000000000000000000000000000000000000000000000000000000",
      "type": "0x2",
      "transactionHash": "0xd4edd5aaebd211b9ec5bf9caee33b20567202a9a5bde03429a67f2fd1afdaa42",
      "transactionIndex": "0x77",
      "blockHash": "0x853f9f96d720ceea7b84dfee65fe38e04f09e1bbc65c13c457600e1f025587dc",
      "blockNumber": "0x22ab428",
      "gasUsed": "0x2b1bc",
      "effectiveGasPrice": "0x38a3a1",
      "from": "0x4bcde68a3ecb0db84aade4958abd259c2c5e6d4d",
      "to": "0xf1abd1c450bf1a71419f4ecc941c11a50ab6e489",
      "contractAddress": null,
      "l1BaseFeeScalar": "0x8dd",
      "l1BlobBaseFee": "0x1",
      "l1BlobBaseFeeScalar": "0x101c12",
      "l1Fee": "0x52c31175",
      "l1GasPrice": "0x12671a1f",
      "l1GasUsed": "0x7be"
    },
    {
      "status": "0x1",
      "cumulativeGasUsed": "0x1d7319d",
      "logs": [],
      "logsBloom": "0x00000000000000000000000000000000000000000000000000000000000000000000000000000000000000000000000000000000000000000000000000000000000000000000000000000000000000000000000000000000000000000000000000000000000000000000000000000000000000000000000000000000000000000000000000000000000000000000000000000000000000000000000000000000000000000000000000000000000000000000000000000000000000000000000000000000000000000000000000000000000000000000000000000000000000000000000000000000000000000000000000000000000000000000000000000000",
      "type": "0x2",
      "transactionHash": "0xab164b2881b5c9d25db9228363980cca0a36b10694769d5bfdf2cda1e56839c3",
      "transactionIndex": "0x95",
      "blockHash": "0x7300085fea1b89a9dd931eb70745d2b7354f377aac49ed13dec7f62a9c350a66",
      "blockNumber": "0x22ab42a",
      "gasUsed": "0x1d2a2",
      "effectiveGasPrice": "0x3837ca",
      "from": "0x4bcde68a3ecb0db84aade4958abd259c2c5e6d4d",
      "to": "0xf1abd1c450bf1a71419f4ecc941c11a50ab6e489",
      "contractAddress": null,
      "l1BaseFeeScalar": "0x8dd",
      "l1BlobBaseFee": "0x1",
      "l1BlobBaseFeeScalar": "0x101c12",
      "l1Fee": "0x42cf2fba",
      "l1GasPrice": "0x12671a1f",
      "l1GasUsed": "0x640"
    }
  ],
  "libraries": [],
  "pending": [],
  "returns": {},
  "timestamp": 1759495478523,
  "chain": 8453,
  "commit": "6645308"
}